{
  "contractName": "AngelusGame",
  "abi": [
    {
      "inputs": [
        {
          "internalType": "uint256",
          "name": "initialSupply",
          "type": "uint256"
        },
        {
          "internalType": "uint256",
          "name": "angelusInflationRate",
          "type": "uint256"
        },
        {
          "internalType": "address",
          "name": "angelusTokenAddress",
          "type": "address"
        }
      ],
      "stateMutability": "nonpayable",
      "type": "constructor"
    },
    {
      "anonymous": false,
      "inputs": [
        {
          "indexed": false,
          "internalType": "string",
          "name": "message",
          "type": "string"
        },
        {
          "indexed": false,
          "internalType": "uint256",
          "name": "value",
          "type": "uint256"
        }
      ],
      "name": "Debug",
      "type": "event"
    },
    {
      "anonymous": false,
      "inputs": [
        {
          "indexed": true,
          "internalType": "address",
          "name": "previousOwner",
          "type": "address"
        },
        {
          "indexed": true,
          "internalType": "address",
          "name": "newOwner",
          "type": "address"
        }
      ],
      "name": "OwnershipTransferred",
      "type": "event"
    },
    {
      "anonymous": false,
      "inputs": [
        {
          "indexed": true,
          "internalType": "bytes32",
          "name": "parcelId",
          "type": "bytes32"
        },
        {
          "indexed": true,
          "internalType": "string",
          "name": "parcelName",
          "type": "string"
        }
      ],
      "name": "ParcelCreated",
      "type": "event"
    },
    {
      "anonymous": false,
      "inputs": [
        {
          "indexed": true,
          "internalType": "address",
          "name": "playerAddress",
          "type": "address"
        },
        {
          "indexed": false,
          "internalType": "bytes32",
          "name": "playerName",
          "type": "bytes32"
        }
      ],
      "name": "Registration",
      "type": "event"
    },
    {
      "anonymous": false,
      "inputs": [
        {
          "indexed": false,
          "internalType": "address",
          "name": "player",
          "type": "address"
        },
        {
          "indexed": false,
          "internalType": "uint256",
          "name": "parcelIndex",
          "type": "uint256"
        },
        {
          "indexed": false,
          "internalType": "uint256",
          "name": "trees",
          "type": "uint256"
        }
      ],
      "name": "TreesCut",
      "type": "event"
    },
    {
      "inputs": [
        {
          "internalType": "address",
          "name": "",
          "type": "address"
        }
      ],
      "name": "isRegistered",
      "outputs": [
        {
          "internalType": "bool",
          "name": "",
          "type": "bool"
        }
      ],
      "stateMutability": "view",
      "type": "function",
      "constant": true
    },
    {
      "inputs": [
        {
          "internalType": "bytes32",
          "name": "",
          "type": "bytes32"
        }
      ],
      "name": "nameToAddress",
      "outputs": [
        {
          "internalType": "address",
          "name": "",
          "type": "address"
        }
      ],
      "stateMutability": "view",
      "type": "function",
      "constant": true
    },
    {
      "inputs": [],
      "name": "newUserBonus",
      "outputs": [
        {
          "internalType": "uint256",
          "name": "",
          "type": "uint256"
        }
      ],
      "stateMutability": "view",
      "type": "function",
      "constant": true
    },
    {
      "inputs": [],
      "name": "owner",
      "outputs": [
        {
          "internalType": "address",
          "name": "",
          "type": "address"
        }
      ],
      "stateMutability": "view",
      "type": "function",
      "constant": true
    },
    {
      "inputs": [
        {
          "internalType": "address",
          "name": "",
          "type": "address"
        },
        {
          "internalType": "uint256",
          "name": "",
          "type": "uint256"
        }
      ],
      "name": "parcels",
      "outputs": [
        {
          "internalType": "bytes32",
          "name": "id",
          "type": "bytes32"
        },
        {
          "internalType": "string",
          "name": "name",
          "type": "string"
        },
        {
          "internalType": "uint256",
          "name": "trees",
          "type": "uint256"
        },
        {
          "internalType": "uint256",
          "name": "maxTrees",
          "type": "uint256"
        },
        {
          "internalType": "uint256",
          "name": "lastCutTime",
          "type": "uint256"
        },
        {
          "internalType": "uint256",
          "name": "lastGrowthTime",
          "type": "uint256"
        },
        {
          "internalType": "uint256",
          "name": "timeUntilCut",
          "type": "uint256"
        },
        {
          "internalType": "uint256",
          "name": "timeReforestation",
          "type": "uint256"
        }
      ],
      "stateMutability": "view",
      "type": "function",
      "constant": true
    },
    {
      "inputs": [
        {
          "internalType": "address",
          "name": "",
          "type": "address"
        },
        {
          "internalType": "uint256",
          "name": "",
          "type": "uint256"
        }
      ],
      "name": "playerTools",
      "outputs": [
        {
          "internalType": "uint256",
          "name": "id",
          "type": "uint256"
        },
        {
          "internalType": "string",
          "name": "name",
          "type": "string"
        },
        {
          "internalType": "uint256",
          "name": "cuttingSpeed",
          "type": "uint256"
        },
        {
          "internalType": "uint256",
          "name": "speedBonus",
          "type": "uint256"
        },
        {
          "internalType": "uint256",
          "name": "price",
          "type": "uint256"
        }
      ],
      "stateMutability": "view",
      "type": "function",
      "constant": true
    },
    {
      "inputs": [
        {
          "internalType": "address",
          "name": "",
          "type": "address"
        }
      ],
      "name": "players",
      "outputs": [
        {
          "internalType": "bytes32",
          "name": "name",
          "type": "bytes32"
        },
        {
          "internalType": "uint256",
          "name": "registrationTime",
          "type": "uint256"
        },
        {
          "internalType": "uint256",
          "name": "cutTrees",
          "type": "uint256"
        },
        {
          "internalType": "uint256",
          "name": "angelusBalance",
          "type": "uint256"
        },
        {
          "internalType": "uint256",
          "name": "stakedAngelus",
          "type": "uint256"
        },
        {
          "internalType": "uint256",
          "name": "unclaimedRewards",
          "type": "uint256"
        },
        {
          "internalType": "uint256",
          "name": "lastUpdateTimeClaimRewards",
          "type": "uint256"
        },
        {
          "internalType": "uint256",
          "name": "toolId",
          "type": "uint256"
        },
        {
          "internalType": "uint256",
          "name": "reforestationUpgradeId",
          "type": "uint256"
        }
      ],
      "stateMutability": "view",
      "type": "function",
      "constant": true
    },
    {
      "inputs": [
        {
          "internalType": "uint256",
          "name": "",
          "type": "uint256"
        }
      ],
      "name": "reforestationUpgrades",
      "outputs": [
        {
          "internalType": "uint256",
          "name": "id",
          "type": "uint256"
        },
        {
          "internalType": "string",
          "name": "name",
          "type": "string"
        },
        {
          "internalType": "uint256",
          "name": "reforestationMultiplier",
          "type": "uint256"
        },
        {
          "internalType": "uint256",
          "name": "price",
          "type": "uint256"
        }
      ],
      "stateMutability": "view",
      "type": "function",
      "constant": true
    },
    {
      "inputs": [
        {
          "internalType": "uint256",
          "name": "",
          "type": "uint256"
        }
      ],
      "name": "registeredPlayers",
      "outputs": [
        {
          "internalType": "address",
          "name": "",
          "type": "address"
        }
      ],
      "stateMutability": "view",
      "type": "function",
      "constant": true
    },
    {
      "inputs": [],
      "name": "renounceOwnership",
      "outputs": [],
      "stateMutability": "nonpayable",
      "type": "function"
    },
    {
      "inputs": [],
      "name": "rewardAdjustmentFactor",
      "outputs": [
        {
          "internalType": "uint256",
          "name": "",
          "type": "uint256"
        }
      ],
      "stateMutability": "view",
      "type": "function",
      "constant": true
    },
    {
      "inputs": [],
      "name": "rewardRate",
      "outputs": [
        {
          "internalType": "uint256",
          "name": "",
          "type": "uint256"
        }
      ],
      "stateMutability": "view",
      "type": "function",
      "constant": true
    },
    {
      "inputs": [
        {
          "internalType": "uint256",
          "name": "",
          "type": "uint256"
        }
      ],
      "name": "speedUpgrades",
      "outputs": [
        {
          "internalType": "uint256",
          "name": "id",
          "type": "uint256"
        },
        {
          "internalType": "string",
          "name": "name",
          "type": "string"
        },
        {
          "internalType": "uint256",
          "name": "speedMultiplier",
          "type": "uint256"
        },
        {
          "internalType": "uint256",
          "name": "price",
          "type": "uint256"
        }
      ],
      "stateMutability": "view",
      "type": "function",
      "constant": true
    },
    {
      "inputs": [
        {
          "internalType": "uint256",
          "name": "",
          "type": "uint256"
        }
      ],
      "name": "tools",
      "outputs": [
        {
          "internalType": "uint256",
          "name": "id",
          "type": "uint256"
        },
        {
          "internalType": "string",
          "name": "name",
          "type": "string"
        },
        {
          "internalType": "uint256",
          "name": "cuttingSpeed",
          "type": "uint256"
        },
        {
          "internalType": "uint256",
          "name": "speedBonus",
          "type": "uint256"
        },
        {
          "internalType": "uint256",
          "name": "price",
          "type": "uint256"
        }
      ],
      "stateMutability": "view",
      "type": "function",
      "constant": true
    },
    {
      "inputs": [
        {
          "internalType": "address",
          "name": "newOwner",
          "type": "address"
        }
      ],
      "name": "transferOwnership",
      "outputs": [],
      "stateMutability": "nonpayable",
      "type": "function"
    },
    {
      "inputs": [
        {
          "internalType": "uint256",
          "name": "amount",
          "type": "uint256"
        }
      ],
      "name": "calculateAmountToSend",
      "outputs": [
        {
          "internalType": "uint256",
          "name": "",
          "type": "uint256"
        }
      ],
      "stateMutability": "pure",
      "type": "function",
      "constant": true
    },
    {
      "inputs": [
        {
          "internalType": "bytes32",
          "name": "name",
          "type": "bytes32"
        }
      ],
      "name": "register",
      "outputs": [],
      "stateMutability": "nonpayable",
      "type": "function"
    },
    {
      "inputs": [
        {
          "internalType": "bytes32",
          "name": "parcelId",
          "type": "bytes32"
        }
      ],
      "name": "cutTrees",
      "outputs": [],
      "stateMutability": "nonpayable",
      "type": "function"
    },
    {
      "inputs": [
        {
          "internalType": "address",
          "name": "player",
          "type": "address"
        }
      ],
      "name": "getPlayerTools",
      "outputs": [
        {
          "components": [
            {
              "internalType": "uint256",
              "name": "id",
              "type": "uint256"
            },
            {
              "internalType": "string",
              "name": "name",
              "type": "string"
            },
            {
              "internalType": "uint256",
              "name": "cuttingSpeed",
              "type": "uint256"
            },
            {
              "internalType": "uint256",
              "name": "speedBonus",
              "type": "uint256"
            },
            {
              "internalType": "uint256",
              "name": "price",
              "type": "uint256"
            }
          ],
          "internalType": "struct AngelusGame.Tool[]",
          "name": "",
          "type": "tuple[]"
        }
      ],
      "stateMutability": "view",
      "type": "function",
      "constant": true
    },
    {
      "inputs": [
        {
          "internalType": "address",
          "name": "player",
          "type": "address"
        }
      ],
      "name": "getPlayerParcels",
      "outputs": [
        {
          "components": [
            {
              "internalType": "bytes32",
              "name": "id",
              "type": "bytes32"
            },
            {
              "internalType": "string",
              "name": "name",
              "type": "string"
            },
            {
              "internalType": "uint256",
              "name": "trees",
              "type": "uint256"
            },
            {
              "internalType": "uint256",
              "name": "maxTrees",
              "type": "uint256"
            },
            {
              "internalType": "uint256",
              "name": "lastCutTime",
              "type": "uint256"
            },
            {
              "internalType": "uint256",
              "name": "lastGrowthTime",
              "type": "uint256"
            },
            {
              "internalType": "uint256",
              "name": "timeUntilCut",
              "type": "uint256"
            },
            {
              "internalType": "uint256",
              "name": "timeReforestation",
              "type": "uint256"
            }
          ],
          "internalType": "struct AngelusGame.ParcelInfo[]",
          "name": "",
          "type": "tuple[]"
        }
      ],
      "stateMutability": "view",
      "type": "function",
      "constant": true
    },
    {
      "inputs": [
        {
          "internalType": "address",
          "name": "playerAddress",
          "type": "address"
        }
      ],
      "name": "getPlayerInfo",
      "outputs": [
        {
          "internalType": "bytes32",
          "name": "",
          "type": "bytes32"
        },
        {
          "internalType": "uint256",
          "name": "",
          "type": "uint256"
        },
        {
          "internalType": "uint256",
          "name": "",
          "type": "uint256"
        },
        {
          "internalType": "uint256",
          "name": "",
          "type": "uint256"
        },
        {
          "internalType": "uint256",
          "name": "",
          "type": "uint256"
        },
        {
          "internalType": "uint256",
          "name": "",
          "type": "uint256"
        },
        {
          "internalType": "uint256",
          "name": "",
          "type": "uint256"
        },
        {
          "internalType": "uint256",
          "name": "",
          "type": "uint256"
        },
        {
          "internalType": "uint256",
          "name": "",
          "type": "uint256"
        }
      ],
      "stateMutability": "view",
      "type": "function",
      "constant": true
    },
    {
      "inputs": [],
      "name": "getAvailableTools",
      "outputs": [
        {
          "components": [
            {
              "internalType": "uint256",
              "name": "id",
              "type": "uint256"
            },
            {
              "internalType": "string",
              "name": "name",
              "type": "string"
            },
            {
              "internalType": "uint256",
              "name": "cuttingSpeed",
              "type": "uint256"
            },
            {
              "internalType": "uint256",
              "name": "speedBonus",
              "type": "uint256"
            },
            {
              "internalType": "uint256",
              "name": "price",
              "type": "uint256"
            }
          ],
          "internalType": "struct AngelusGame.Tool[]",
          "name": "",
          "type": "tuple[]"
        }
      ],
      "stateMutability": "view",
      "type": "function",
      "constant": true
    },
    {
      "inputs": [],
      "name": "getAvailableToolUpgrades",
      "outputs": [
        {
          "components": [
            {
              "internalType": "uint256",
              "name": "id",
              "type": "uint256"
            },
            {
              "internalType": "string",
              "name": "name",
              "type": "string"
            },
            {
              "internalType": "uint256",
              "name": "speedMultiplier",
              "type": "uint256"
            },
            {
              "internalType": "uint256",
              "name": "price",
              "type": "uint256"
            }
          ],
          "internalType": "struct AngelusGame.SpeedUpgrade[]",
          "name": "",
          "type": "tuple[]"
        }
      ],
      "stateMutability": "view",
      "type": "function",
      "constant": true
    },
    {
      "inputs": [],
      "name": "getAvailableReforestationUpgrades",
      "outputs": [
        {
          "components": [
            {
              "internalType": "uint256",
              "name": "id",
              "type": "uint256"
            },
            {
              "internalType": "string",
              "name": "name",
              "type": "string"
            },
            {
              "internalType": "uint256",
              "name": "reforestationMultiplier",
              "type": "uint256"
            },
            {
              "internalType": "uint256",
              "name": "price",
              "type": "uint256"
            }
          ],
          "internalType": "struct AngelusGame.ReforestationUpgrade[]",
          "name": "",
          "type": "tuple[]"
        }
      ],
      "stateMutability": "view",
      "type": "function",
      "constant": true
    }
  ],
  "bytecode": "0x60806040526103e86003556113886006556103e86007553480156200002357600080fd5b506040516200379a3803806200379a833981016040819052620000469162000c08565b620000513362000b7d565b60018055600280546001600160a01b0319166001600160a01b03831690811790915560405163405ebd4d60e01b815230600482015263405ebd4d90602401600060405180830381600087803b158015620000aa57600080fd5b505af1158015620000bf573d6000803e3d6000fd5b50506002546001600160a01b031691506340c10f19905033620000e28662000bcd565b6040516001600160e01b031960e085901b1681526001600160a01b0390921660048301526024820152604401600060405180830381600087803b1580156200012957600080fd5b505af11580156200013e573d6000803e3d6000fd5b505050600483905550600160058181556040805160a081018252600080825282518084018452600c81526b48616368652073696d706c6560a01b60208083019190915283019081526026938301939093526060820181905260808201819052600f80549586018155905280516000805160206200377a8339815191529490930293840192835590519092600080516020620036fa8339815191520190620001e6908262000cf5565b5060408281015160028301556060808401516003840155608093840151600490930192909255805160a081018252600180825282518084018452600d81526c4861636865206465206c75786560981b6020828101919091528301908152602d938301939093526000938201849052600a94820194909452600f80549485018155909252815160059093026000805160206200377a83398151915281019384559051919291600080516020620036fa83398151915290910190620002aa908262000cf5565b506040828101516002808401919091556060808501516003850155608094850151600490940193909355815160a08101835290815281518083018352601781527f54726f6e636f6e6e6575736520456c65637472697175650000000000000000006020828101919091528201908152603c928201929092526000928101839052601493810193909352600f80546001810182559252825160059092026000805160206200377a83398151915281019283559051600080516020620036fa833981519152909101906200037d908262000cf5565b506040828101516002830155606080840151600380850191909155608094850151600490940193909355815160a08101835292835281518083018352601481527f54726f6e636f6e6e6575736520457373656e63650000000000000000000000006020828101919091528401908152605a928401929092526000908301819052602893830193909352600f80546001810182559352815160059093026000805160206200377a83398151915281019384559051919291600080516020620036fa8339815191529091019062000453908262000cf5565b5060408281015160028301556060808401516003840155608093840151600493840155815160a08101835292835281518083018352601b81527f54726f6e636f6e6e6575736520457373656e63652044656c757865000000000060208281019190915284019081526070928401929092526000908301819052603c93830193909352600f80546001810182559352815160059093026000805160206200377a83398151915281019384559051919291600080516020620036fa8339815191529091019062000522908262000cf5565b5060408281015160028301556060808401516003840155608093840151600490930192909255805160a0810182526005808252825180840184526011815270547261637465757220416261746575736560781b602082810191909152830190815260e1938301939093526000938201849052609694820194909452600f805460018101825593528051929093026000805160206200377a83398151915281019283559051600080516020620036fa83398151915290910190620005e6908262000cf5565b50604082810151600280840191909155606080850151600385015560809485015160049485015582519485018352600080865283518085018552600b81526a2b34ba32b9b9b2902c101960a91b602082810191909152870190815293860192909252601490850152601080546001810182559152835192026000805160206200375a833981519152810192835590516000805160206200371a8339815191529091019062000695908262000cf5565b5060408281015160028301556060928301516003909201919091558051608081018252600180825282518084018452600b81526a159a5d195cdcd94816080d60aa1b60208281019190915283019081526004938301849052602894830194909452601080549182018155600052815192026000805160206200375a8339815191528101928355925190926000805160206200371a83398151915201906200073d908262000cf5565b50604082810151600280840191909155606093840151600390930192909255805160808101825291825280518082018252600b81526a2b34ba32b9b9b2902c101b60a91b6020828101919091528301908152600691830191909152603c9282019290925260108054600181018255600091909152815160049091026000805160206200375a83398151915281019182559251919290916000805160206200371a83398151915290910190620007f3908262000cf5565b506040828101516002830155606092830151600392830155805160808101825291825280518082018252600b81526a0acd2e8cae6e6ca40b040760ab1b602082810191909152830190815260089183019190915260649282019290925260108054600181018255600091909152815160049091026000805160206200375a83398151915281019182559251919290916000805160206200371a83398151915290910190620008a2908262000cf5565b506040828101516002808401919091556060938401516003909301929092558051608081018252600080825282518084018452600b81526a2b34ba32b9b9b2902c101960a91b60208281019190915283019081529282019390935260149381019390935260118054600181018255925282516004909202600080516020620036da833981519152810192835590516000805160206200373a8339815191529091019062000950908262000cf5565b5060408281015160028301556060928301516003909201919091558051608081018252600180825282518084018452600b81526a159a5d195cdcd94816080d60aa1b6020828101919091528301908152600493830184905260289483019490945260118054918201815560005281519202600080516020620036da8339815191528101928355925190926000805160206200373a8339815191520190620009f8908262000cf5565b50604082810151600280840191909155606093840151600390930192909255805160808101825291825280518082018252600b81526a2b34ba32b9b9b2902c101b60a91b6020828101919091528301908152600691830191909152603c928201929092526011805460018101825560009190915281516004909102600080516020620036da83398151915281019182559251919290916000805160206200373a8339815191529091019062000aae908262000cf5565b506040828101516002830155606092830151600392830155805160808101825291825280518082018252600b81526a0acd2e8cae6e6ca40b040760ab1b60208281019190915283019081526008918301919091526050928201929092526011805460018101825560009190915281516004909102600080516020620036da83398151915281019182559251919290916000805160206200373a8339815191529091019062000b5d908262000cf5565b506040820151816002015560608201518160030155505050505062000efc565b600080546001600160a01b038381166001600160a01b0319831681178455604051919092169283917f8be0079c531659141344cd1fd0a4f28419497f9722a3daafe3b4186f6b6457e09190a35050565b6000601262000bea62000be282600a62000ed4565b849062000bf1565b9392505050565b600062000bff828462000ee2565b90505b92915050565b60008060006060848603121562000c1e57600080fd5b83516020850151604086015191945092506001600160a01b038116811462000c4557600080fd5b809150509250925092565b634e487b7160e01b600052604160045260246000fd5b600181811c9082168062000c7b57607f821691505b60208210810362000c9c57634e487b7160e01b600052602260045260246000fd5b50919050565b601f82111562000cf057600081815260208120601f850160051c8101602086101562000ccb5750805b601f850160051c820191505b8181101562000cec5782815560010162000cd7565b5050505b505050565b81516001600160401b0381111562000d115762000d1162000c50565b62000d298162000d22845462000c66565b8462000ca2565b602080601f83116001811462000d61576000841562000d485750858301515b600019600386901b1c1916600185901b17855562000cec565b600085815260208120601f198616915b8281101562000d925788860151825594840194600190910190840162000d71565b508582101562000db15787850151600019600388901b60f8161c191681555b5050505050600190811b01905550565b634e487b7160e01b600052601160045260246000fd5b600181815b8085111562000e1857816000190482111562000dfc5762000dfc62000dc1565b8085161562000e0a57918102915b93841c939080029062000ddc565b509250929050565b60008262000e315750600162000c02565b8162000e405750600062000c02565b816001811462000e59576002811462000e645762000e84565b600191505062000c02565b60ff84111562000e785762000e7862000dc1565b50506001821b62000c02565b5060208310610133831016604e8410600b841016171562000ea9575081810a62000c02565b62000eb5838362000dd7565b806000190482111562000ecc5762000ecc62000dc1565b029392505050565b600062000bff838362000e20565b808202811582820484141762000c025762000c0262000dc1565b6127ce8062000f0c6000396000f3fe608060405234801561001057600080fd5b50600436106101585760003560e01c80638da5cb5b116100c3578063c3c5a5471161007c578063c3c5a547146103b5578063c7ba47c2146103e8578063e1fa8e84146103f1578063e2eb41ff14610404578063ee39422d14610460578063f2fde38b1461047357600080fd5b80638da5cb5b1461033e578063a3b02dde1461034f578063b099449014610362578063b33408cc1461036b578063bc60c31d1461038f578063c16fd450146103a257600080fd5b8063590c8b0811610115578063590c8b0814610229578063593284011461023e57806369ed61ad146102e5578063715018a61461030c5780637b0a47ee1461031457806389a5b2291461032b57600080fd5b80630c9907491461015d578063107b9601146101725780633fb5c13f1461019057806342b53ee5146101b357806348c540c7146101c85780634bac8c8d146101e8575b600080fd5b61017061016b366004612073565b610486565b005b61017a610aee565b60405161018791906120dc565b60405180910390f35b6101a361019e366004612073565b610c07565b6040516101879493929190612171565b6101bb610ccb565b60405161018791906121dc565b6101db6101d636600461225a565b610dd1565b6040516101879190612275565b6102116101f6366004612073565b600b602052600090815260409020546001600160a01b031681565b6040516001600160a01b039091168152602001610187565b610231611025565b604051610187919061231b565b6102a161024c36600461225a565b6001600160a01b03166000908152600860208190526040909120805460018201546002830154600384015460048501546005860154600687015460078801549790980154959894979396929591949093929190565b60408051998a5260208a0198909852968801959095526060870193909352608086019190915260a085015260c084015260e083015261010082015261012001610187565b6102f86102f3366004612370565b61112b565b60405161018798979695949392919061239a565b610170611218565b61031d60065481565b604051908152602001610187565b610211610339366004612073565b61122c565b6000546001600160a01b0316610211565b6101a361035d366004612073565b611256565b61031d60035481565b61037e610379366004612370565b611266565b6040516101879594939291906123e7565b61037e61039d366004612073565b611341565b61031d6103b0366004612073565b611376565b6103d86103c336600461225a565b600a6020526000908152604090205460ff1681565b6040519015158152602001610187565b61031d60075481565b6101706103ff366004612073565b611396565b6102a161041236600461225a565b60086020528060005260406000206000915090508060000154908060010154908060020154908060030154908060040154908060050154908060060154908060070154908060080154905089565b61017a61046e36600461225a565b61182d565b61017061048136600461225a565b61195c565b336000908152600a602052604090205460ff166104db5760405162461bcd60e51b815260206004820152600e60248201526d139bdd081c9959da5cdd195c995960921b60448201526064015b60405180910390fd5b60006104e6826119d2565b33600090815260096020526040902054909150811061053e5760405162461bcd60e51b8152602060048201526014602482015273092dcecc2d8d2c840e0c2e4c6cad840d2dcc8caf60631b60448201526064016104d2565b33600090815260096020526040812080548390811061055f5761055f61241d565b906000526020600020906008020190508060020154610384146105c45760405162461bcd60e51b815260206004820152601860248201527f5472656573206d7573742062652039303020746f20637574000000000000000060448201526064016104d2565b60006105dd826004015442611a4a90919063ffffffff16565b905081600701548110610a3d576000610603836006015484600701548560030154611a5f565b90506000805160206127798339815191528160405161064991906040808252600a90820152691d1c99595cd51bd0dd5d60b21b6060820152602081019190915260800190565b60405180910390a133600090815260086020526040812060070154600f805490919081106106795761067961241d565b9060005260206000209060050201600201549050600080516020612779833981519152816040516106d091906040808252600990820152681d1bdbdb14dc19595960ba1b6060820152602081019190915260800190565b60405180910390a133600090815260086020526040812060070154600f805490919081106107005761070061241d565b90600052602060002090600502016003015490506000805160206127798339815191528160405161075c91906040808252600e908201526d746f6f6c5370656564426f6e757360901b6060820152602081019190915260800190565b60405180910390a16000610785606461077f6107788583612449565b8690611a98565b90611aa4565b9050600080516020612779833981519152816040516107d291906040808252601190820152701d1bdd185b10dd5d1d1a5b99d4dc195959607a1b6060820152602081019190915260800190565b60405180910390a160006107ec610e1061077f8489611a98565b90506000805160206127798339815191528160405161083591906040808252600d908201526c6375747461626c65547265657360981b6060820152602081019190915260800190565b60405180910390a1600081861161084c578561084e565b815b90506000805160206127798339815191528260405161089a919060408082526010908201526f1d1c99595cd058dd1d585b1b1e50dd5d60821b6060820152602081019190915260800190565b60405180910390a160028801546108b19082611a4a565b60028901819055604051600080516020612779833981519152916108fe916040808252600d908201526c03830b931b2b6173a3932b2b99609d1b6060820152602081019190915260800190565b60405180910390a14260048901819055604051600080516020612779833981519152916109599160408082526012908201527170617263656c2e6c61737443757454696d6560701b6060820152602081019190915260800190565b60405180910390a13360009081526008602052604090206002015461097e9082611ab0565b336000908152600860205260409081902060020182905551600080516020612779833981519152916109e9916040808252601c908201527f706c61796572735b6d73672e73656e6465725d2e6375745472656573000000006060820152602081019190915260800190565b60405180910390a160408051338152602081018b90529081018290527f5bace22bca7d6f755406177763fce35c560238ab1dc4a851a799c09c1210103b9060600160405180910390a1505050505050610ae8565b604080518181526010818301526f1d1a5b5954da5b98d953185cdd10dd5d60821b60608201526020810183905290516000805160206127798339815191529181900360800190a16000805160206127798339815191528260070154604051610adf919060408082526018908201527f70617263656c2e74696d655265666f726573746174696f6e00000000000000006060820152602081019190915260800190565b60405180910390a15b50505050565b6060600f805480602002602001604051908101604052809291908181526020016000905b82821015610bfe57838290600052602060002090600502016040518060a001604052908160008201548152602001600182018054610b4f9061245c565b80601f0160208091040260200160405190810160405280929190818152602001828054610b7b9061245c565b8015610bc85780601f10610b9d57610100808354040283529160200191610bc8565b820191906000526020600020905b815481529060010190602001808311610bab57829003601f168201915b50505050508152602001600282015481526020016003820154815260200160048201548152505081526020019060010190610b12565b50505050905090565b60118181548110610c1757600080fd5b60009182526020909120600490910201805460018201805491935090610c3c9061245c565b80601f0160208091040260200160405190810160405280929190818152602001828054610c689061245c565b8015610cb55780601f10610c8a57610100808354040283529160200191610cb5565b820191906000526020600020905b815481529060010190602001808311610c9857829003601f168201915b5050505050908060020154908060030154905084565b60606010805480602002602001604051908101604052809291908181526020016000905b82821015610bfe578382906000526020600020906004020160405180608001604052908160008201548152602001600182018054610d2c9061245c565b80601f0160208091040260200160405190810160405280929190818152602001828054610d589061245c565b8015610da55780601f10610d7a57610100808354040283529160200191610da5565b820191906000526020600020905b815481529060010190602001808311610d8857829003601f168201915b505050505081526020016002820154815260200160038201548152505081526020019060010190610cef565b6001600160a01b038116600090815260096020526040812080546060928167ffffffffffffffff811115610e0757610e07612496565b604051908082528060200260200182016040528015610e8357816020015b610e7060405180610100016040528060008019168152602001606081526020016000815260200160008152602001600081526020016000815260200160008152602001600081525090565b815260200190600190039081610e255790505b50905060005b8281101561101c576000848281548110610ea557610ea561241d565b90600052602060002090600802019050600080610ecf836004015442611a4a90919063ffffffff16565b905082600701548110610ee55760009150610ef7565b6007830154610ef49082611a4a565b91505b6000610f0c8385600701548660030154611a5f565b905060405180610100016040528085600001548152602001856001018054610f339061245c565b80601f0160208091040260200160405190810160405280929190818152602001828054610f5f9061245c565b8015610fac5780601f10610f8157610100808354040283529160200191610fac565b820191906000526020600020905b815481529060010190602001808311610f8f57829003601f168201915b505050505081526020018281526020018560030154815260200185600401548152602001856005015481526020018481526020018560070154815250868681518110610ffa57610ffa61241d565b6020026020010181905250505050508080611014906124ac565b915050610e89565b50949350505050565b60606011805480602002602001604051908101604052809291908181526020016000905b82821015610bfe5783829060005260206000209060040201604051806080016040529081600082015481526020016001820180546110869061245c565b80601f01602080910402602001604051908101604052809291908181526020018280546110b29061245c565b80156110ff5780601f106110d4576101008083540402835291602001916110ff565b820191906000526020600020905b8154815290600101906020018083116110e257829003601f168201915b505050505081526020016002820154815260200160038201548152505081526020019060010190611049565b6009602052816000526040600020818154811061114757600080fd5b9060005260206000209060080201600091509150508060000154908060010180546111719061245c565b80601f016020809104026020016040519081016040528092919081815260200182805461119d9061245c565b80156111ea5780601f106111bf576101008083540402835291602001916111ea565b820191906000526020600020905b8154815290600101906020018083116111cd57829003601f168201915b5050505050908060020154908060030154908060040154908060050154908060060154908060070154905088565b611220611abc565b61122a6000611b16565b565b600d818154811061123c57600080fd5b6000918252602090912001546001600160a01b0316905081565b60108181548110610c1757600080fd5b600c602052816000526040600020818154811061128257600080fd5b9060005260206000209060050201600091509150508060000154908060010180546112ac9061245c565b80601f01602080910402602001604051908101604052809291908181526020018280546112d89061245c565b80156113255780601f106112fa57610100808354040283529160200191611325565b820191906000526020600020905b81548152906001019060200180831161130857829003601f168201915b5050505050908060020154908060030154908060040154905085565b600f818154811061135157600080fd5b600091825260209091206005909102018054600182018054919350906112ac9061245c565b6000601261138f61138882600a6125a9565b8490611a98565b9392505050565b61139e611b66565b6000818152600b60205260409020546001600160a01b0316156113f85760405162461bcd60e51b81526020600482015260126024820152712730b6b29030b63932b0b23c903a30b5b2b760711b60448201526064016104d2565b336000908152600a602052604090205460ff161561144d5760405162461bcd60e51b8152602060048201526012602482015271105b1c9958591e481c9959da5cdd195c995960721b60448201526064016104d2565b6002546040516370a0823160e01b81523360048201526000916001600160a01b0316906370a0823190602401602060405180830381865afa158015611496573d6000803e3d6000fd5b505050506040513d601f19601f820116820180604052508101906114ba91906125b5565b905060006114d36114cc600354611376565b8390611ab0565b9050600060405180610120016040528085815260200142815260200160008152602001838152602001600081526020016000815260200142815260200160008152602001600081525090506000604890506000604051806101000160405280423360405160200161156092919091825260601b6bffffffffffffffffffffffff1916602082015260340190565b604051602081830303815290604052805190602001208152602001611586600554611bbf565b8152602001610384815260200161038481526020014281526020014281526020014281526020018381525090506115c96001600554611ab090919063ffffffff16565b6005908155336000908152600a60209081526040808320805460ff19166001908117909155600880845282852089518155898501518184015589840151600282015560608a0151600382015560808a0151600482015560a08a01519681019690965560c0890151600687015560e0890151600787015561010089015195810195909555600983529083208054808301825590845292829020855193909402909301918255830151839282019061167f908261261d565b5060408281015160028381019190915560608401516003808501919091556080850151600485015560a0850151600585015560c0850151600685015560e0909401516007909301929092556000898152600b6020529081208054336001600160a01b03199182168117909255600d805460018101825593527fd7b6990105719101dabeb77144f2a3385c8033acd3af97e9423a695e81ad1eb590920180549092168117909155905491546001600160a01b03909216916340c10f19919061174590611376565b6040516001600160e01b031960e085901b1681526001600160a01b0390921660048301526024820152604401600060405180830381600087803b15801561178b57600080fd5b505af115801561179f573d6000803e3d6000fd5b50505060208201516040516117b492506126dd565b604051908190038120825190917f2e2dd66591851e752797b173bfe5549db6672ca3cad9c66c9d0903aa69fa836790600090a360405186815233907f03109165f124de6460959c5f982cb2717d5f6141a3a27cf4eb5481263ecfeeca9060200160405180910390a2505050505061182a60018055565b50565b6001600160a01b0381166000908152600c60209081526040808320805482518185028101850190935280835260609492939192909184015b8282101561195157838290600052602060002090600502016040518060a0016040529081600082015481526020016001820180546118a29061245c565b80601f01602080910402602001604051908101604052809291908181526020018280546118ce9061245c565b801561191b5780601f106118f05761010080835404028352916020019161191b565b820191906000526020600020905b8154815290600101906020018083116118fe57829003601f168201915b50505050508152602001600282015481526020016003820154815260200160048201548152505081526020019060010190611865565b505050509050919050565b611964611abc565b6001600160a01b0381166119c95760405162461bcd60e51b815260206004820152602660248201527f4f776e61626c653a206e6577206f776e657220697320746865207a65726f206160448201526564647265737360d01b60648201526084016104d2565b61182a81611b16565b600080805b33600090815260096020526040902054811015611a4357336000908152600960205260409020805485919083908110611a1257611a1261241d565b90600052602060002090600802016000015403611a3157809150611a43565b80611a3b816124ac565b9150506119d7565b5092915050565b6000611a5682846126f9565b90505b92915050565b600083600003611a7057508061138f565b6000611a7c8486611a4a565b90506000611a8e8561077f8685611a98565b9695505050505050565b6000611a56828461270c565b6000611a568284612739565b6000611a568284612449565b6000546001600160a01b0316331461122a5760405162461bcd60e51b815260206004820181905260248201527f4f776e61626c653a2063616c6c6572206973206e6f7420746865206f776e657260448201526064016104d2565b600080546001600160a01b038381166001600160a01b0319831681178455604051919092169283917f8be0079c531659141344cd1fd0a4f28419497f9722a3daafe3b4186f6b6457e09190a35050565b600260015403611bb85760405162461bcd60e51b815260206004820152601f60248201527f5265656e7472616e637947756172643a207265656e7472616e742063616c6c0060448201526064016104d2565b6002600155565b60408051808201825260158152743131b23333b43535b636b73838b939ba3b3bbc3cbd60591b6020808301919091528251808401845260058152646165696f7560d81b818301528351601080825281860190955260609491926000929082018180368337019050509050600083518642604051602001611c5b92919091825260208201526818dbdb9cdbdb985b9d60ba1b604082015260490190565b6040516020818303038152906040528051906020012060001c611c7e919061274d565b9050838181518110611c9257611c9261241d565b602001015160f81c60f81b82600081518110611cb057611cb061241d565b60200101906001600160f81b031916908160001a90535082518642604051602001611cf39291909182526020820152641d9bddd95b60da1b604082015260450190565b6040516020818303038152906040528051906020012060001c611d16919061274d565b9050828181518110611d2a57611d2a61241d565b602001015160f81c60f81b82600181518110611d4857611d4861241d565b60200101906001600160f81b031916908160001a90535060025b600f811015611efa57611d9e83611d7a6001846126f9565b81518110611d8a57611d8a61241d565b01602001516001600160f81b031916611ffe565b158015611db75750611db583611d7a6002846126f9565b155b15611e525783516040805160208082018b9052428284015260608201859052641d9bddd95b60da1b60808301528251606581840301815260859092019092528051910120611e05919061274d565b9150838281518110611e1957611e1961241d565b602001015160f81c60f81b838281518110611e3657611e3661241d565b60200101906001600160f81b031916908160001a905350611ee8565b84516040805160208082018b90524282840152606082018590526818dbdb9cdbdb985b9d60ba1b60808301528251606981840301815260899092019092528051910120611e9f919061274d565b9150848281518110611eb357611eb361241d565b602001015160f81c60f81b838281518110611ed057611ed061241d565b60200101906001600160f81b031916908160001a9053505b80611ef2816124ac565b915050611d62565b50600e5b8015611f3e57828181518110611f1657611f1661241d565b01602001516001600160f81b031916600003611f3e5780611f3681612761565b915050611efe565b6000611f4b826001612449565b67ffffffffffffffff811115611f6357611f63612496565b6040519080825280601f01601f191660200182016040528015611f8d576020820181803683370190505b50905060005b828111611ff257848181518110611fac57611fac61241d565b602001015160f81c60f81b828281518110611fc957611fc961241d565b60200101906001600160f81b031916908160001a90535080611fea816124ac565b915050611f93565b50979650505050505050565b6000606160f81b6001600160f81b0319831614806120295750606560f81b6001600160f81b03198316145b806120415750606960f81b6001600160f81b03198316145b806120595750606f60f81b6001600160f81b03198316145b80611a595750506001600160f81b031916607560f81b1490565b60006020828403121561208557600080fd5b5035919050565b60005b838110156120a757818101518382015260200161208f565b50506000910152565b600081518084526120c881602086016020860161208c565b601f01601f19169290920160200192915050565b60006020808301818452808551808352604092508286019150828160051b87010184880160005b8381101561216357603f19898403018552815160a08151855288820151818a870152612131828701826120b0565b838a0151878b015260608085015190880152608093840151939096019290925250509386019390860190600101612103565b509098975050505050505050565b84815260806020820152600061218a60808301866120b0565b6040830194909452506060015292915050565b8051825260006020820151608060208501526121bc60808501826120b0565b905060408301516040850152606083015160608501528091505092915050565b6000602080830181845280855180835260408601915060408160051b870101925083870160005b8281101561223157603f1988860301845261221f85835161219d565b94509285019290850190600101612203565b5092979650505050505050565b80356001600160a01b038116811461225557600080fd5b919050565b60006020828403121561226c57600080fd5b611a568261223e565b60006020808301818452808551808352604092508286019150828160051b87010184880160005b8381101561216357603f1989840301855281516101008151855288820151818a8701526122cb828701826120b0565b838a0151878b0152606080850151908801526080808501519088015260a0808501519088015260c0808501519088015260e09384015193909601929092525050938601939086019060010161229c565b6000602080830181845280855180835260408601915060408160051b870101925083870160005b8281101561223157603f1988860301845261235e85835161219d565b94509285019290850190600101612342565b6000806040838503121561238357600080fd5b61238c8361223e565b946020939093013593505050565b60006101008a83528060208401526123b48184018b6120b0565b604084019990995250506060810195909552608085019390935260a084019190915260c083015260e09091015292915050565b85815260a06020820152600061240060a08301876120b0565b604083019590955250606081019290925260809091015292915050565b634e487b7160e01b600052603260045260246000fd5b634e487b7160e01b600052601160045260246000fd5b80820180821115611a5957611a59612433565b600181811c9082168061247057607f821691505b60208210810361249057634e487b7160e01b600052602260045260246000fd5b50919050565b634e487b7160e01b600052604160045260246000fd5b6000600182016124be576124be612433565b5060010190565b600181815b808511156125005781600019048211156124e6576124e6612433565b808516156124f357918102915b93841c93908002906124ca565b509250929050565b60008261251757506001611a59565b8161252457506000611a59565b816001811461253a576002811461254457612560565b6001915050611a59565b60ff84111561255557612555612433565b50506001821b611a59565b5060208310610133831016604e8410600b8410161715612583575081810a611a59565b61258d83836124c5565b80600019048211156125a1576125a1612433565b029392505050565b6000611a568383612508565b6000602082840312156125c757600080fd5b5051919050565b601f82111561261857600081815260208120601f850160051c810160208610156125f55750805b601f850160051c820191505b8181101561261457828155600101612601565b5050505b505050565b815167ffffffffffffffff81111561263757612637612496565b61264b81612645845461245c565b846125ce565b602080601f83116001811461268057600084156126685750858301515b600019600386901b1c1916600185901b178555612614565b600085815260208120601f198616915b828110156126af57888601518255948401946001909101908401612690565b50858210156126cd5787850151600019600388901b60f8161c191681555b5050505050600190811b01905550565b600082516126ef81846020870161208c565b9190910192915050565b81810381811115611a5957611a59612433565b8082028115828204841417611a5957611a59612433565b634e487b7160e01b600052601260045260246000fd5b60008261274857612748612723565b500490565b60008261275c5761275c612723565b500690565b60008161277057612770612433565b50600019019056fe3c5ad147104e56be34a9176a6692f7df8d2f4b29a5af06bc6b98970d329d6577a264697066735822122023048655b82836ac3616b888afc2419ae04388ba66ad4f5993c9f11a3bc2955c64736f6c6343000813003331ecc21a745e3968a04e9570e4425bc18fa8019c68028196b546d1669c200c688d1108e10bcb7c27dddfc02ed9d693a074039d026cf4ea4240b40f7d581ac8031b6847dc741a1b0cd08d278845f9d819d87b734759afb55fe2de5cb82a9ae67331ecc21a745e3968a04e9570e4425bc18fa8019c68028196b546d1669c200c691b6847dc741a1b0cd08d278845f9d819d87b734759afb55fe2de5cb82a9ae6728d1108e10bcb7c27dddfc02ed9d693a074039d026cf4ea4240b40f7d581ac802",
  "immutableReferences": {},
  "source": "// SPDX-License-Identifier: MIT\r\npragma solidity ^0.8.19;\r\n\r\nimport \"@openzeppelin/contracts/access/Ownable.sol\";\r\nimport \"@openzeppelin/contracts/security/ReentrancyGuard.sol\";\r\nimport \"@openzeppelin/contracts/utils/math/SafeMath.sol\";\r\n\r\nimport \"./AngelusToken.sol\";\r\n\r\ncontract AngelusGame is Ownable, ReentrancyGuard {\r\n    using SafeMath for uint256;\r\n    AngelusToken private angelusToken;\r\n\r\n    uint256 public newUserBonus = 1000;\r\n    uint256 private _angelusInflationRate;\r\n    uint256 private parcelIdCounter; // Ajout pour suivre les identifiants de parcelle\r\n\r\n    uint256 public rewardRate = 5000; // 5% de rcompense initiale, reprsent en base 10^5 (5000 = 5%)\r\n    uint256 public rewardAdjustmentFactor = 1000; // Facteur d'ajustement de la rcompense en fonction de l'inflation ou de la dflation, reprsent en base 10^5 (1000 = 1%)\r\n\r\n    constructor(uint256 initialSupply, uint256 angelusInflationRate, address angelusTokenAddress) {\r\n        angelusToken = AngelusToken(angelusTokenAddress);\r\n        angelusToken.setGameContract(address(this));\r\n        angelusToken.mint(msg.sender, calculateAmountToSend(initialSupply));\r\n        _angelusInflationRate = angelusInflationRate;\r\n        parcelIdCounter = 1;\r\n\r\n        // Ajoutez les outils\r\n        tools.push(Tool({\r\n            id: 0,\r\n            name: \"Hache simple\",\r\n            cuttingSpeed: 38,\r\n            speedBonus: 0,\r\n            price: 0\r\n        }));\r\n        tools.push(Tool({\r\n            id: 1,\r\n            name: \"Hache de luxe\",\r\n            cuttingSpeed: 900 / 20, //  dterminer\r\n            speedBonus: 0,\r\n            price: 10 //  dterminer\r\n        }));\r\n        tools.push(Tool({\r\n            id: 2,\r\n            name: \"Tronconneuse Electrique\",\r\n            cuttingSpeed: 900 / 15,\r\n            speedBonus: 0,\r\n            price: 20\r\n        }));\r\n        tools.push(Tool({\r\n            id: 3,\r\n            name: \"Tronconneuse Essence\",\r\n            cuttingSpeed: 900 / 10,\r\n            speedBonus: 0,\r\n            price: 40\r\n        }));\r\n        tools.push(Tool({\r\n            id: 4,\r\n            name: \"Tronconneuse Essence Deluxe\",\r\n            cuttingSpeed: 112,\r\n            speedBonus: 0,\r\n            price: 60\r\n        }));\r\n        tools.push(Tool({\r\n            id: 5,\r\n            name: \"Tracteur Abateuse\",\r\n            cuttingSpeed: 900 / 4,\r\n            speedBonus: 0,\r\n            price: 150\r\n        }));\r\n\r\n        // Ajoutez les amliorations de vitesse\r\n        speedUpgrades.push(SpeedUpgrade({\r\n            id: 0,\r\n            name: \"Vitesse X 2\",\r\n            speedMultiplier: 2,\r\n            price: 20 \r\n        }));\r\n        speedUpgrades.push(SpeedUpgrade({\r\n            id: 1,\r\n            name: \"Vitesse X 4\",\r\n            speedMultiplier: 4,\r\n            price: 40 \r\n        }));\r\n        speedUpgrades.push(SpeedUpgrade({\r\n            id: 2,\r\n            name: \"Vitesse X 6\",\r\n            speedMultiplier: 6,\r\n            price: 60 \r\n        }));\r\n        speedUpgrades.push(SpeedUpgrade({\r\n            id: 3,\r\n            name: \"Vitesse X 8\",\r\n            speedMultiplier: 8,\r\n            price: 100 \r\n        }));\r\n        // Ajoutez les amliorations de vitesse de repousse\r\n        reforestationUpgrades.push(ReforestationUpgrade({\r\n            id: 0,\r\n            name: \"Vitesse X 2\",\r\n            reforestationMultiplier: 2,\r\n            price: 20 \r\n        }));\r\n        reforestationUpgrades.push(ReforestationUpgrade({\r\n            id: 1,\r\n            name: \"Vitesse X 4\",\r\n            reforestationMultiplier: 4,\r\n            price: 40 \r\n        }));\r\n        reforestationUpgrades.push(ReforestationUpgrade({\r\n            id: 2,\r\n            name: \"Vitesse X 6\",\r\n            reforestationMultiplier: 6,\r\n            price: 60 \r\n        }));\r\n        reforestationUpgrades.push(ReforestationUpgrade({\r\n            id: 3,\r\n            name: \"Vitesse X 8\",\r\n            reforestationMultiplier: 8,\r\n            price: 80\r\n        }));\r\n    }\r\n\r\n    function calculateAmountToSend(uint256 amount) public pure returns (uint256) {\r\n        uint256 decimals = 18;\r\n        return amount.mul(10**decimals);\r\n    }\r\n\r\n    mapping(address => Player) public players;\r\n    mapping(address => Parcel[]) public parcels;\r\n    mapping(address => bool) public isRegistered;\r\n    mapping(bytes32 => address) public nameToAddress;\r\n    mapping(address => Tool[]) public playerTools;\r\n\r\n    address[] public registeredPlayers;\r\n    uint256 private toolIdCounter;\r\n\r\n    struct Player {\r\n        bytes32 name;\r\n        uint256 registrationTime;\r\n        uint256 cutTrees;\r\n        uint256 angelusBalance;\r\n        uint256 stakedAngelus;\r\n        uint256 unclaimedRewards;\r\n        uint256 lastUpdateTimeClaimRewards;\r\n        uint256 toolId;\r\n        uint256 reforestationUpgradeId;\r\n    }\r\n\r\n    struct Parcel {\r\n        bytes32 id;\r\n        string name;\r\n        uint256 trees;\r\n        uint256 maxTrees;\r\n        uint256 lastCutTime;\r\n        uint256 lastGrowthTime;\r\n        uint256 timeUntilCut;\r\n        uint256 timeReforestation;\r\n    }\r\n\r\n    struct ParcelInfo {\r\n        bytes32 id;\r\n        string name;\r\n        uint256 trees;\r\n        uint256 maxTrees;\r\n        uint256 lastCutTime;\r\n        uint256 lastGrowthTime;\r\n        uint256 timeUntilCut;\r\n        uint256 timeReforestation;\r\n    }\r\n\r\n    // Dfinissez les structures\r\n    struct Tool {\r\n        uint256 id;\r\n        string name;\r\n        uint256 cuttingSpeed;\r\n        uint256 speedBonus;\r\n        uint256 price;\r\n    }\r\n\r\n    struct SpeedUpgrade {\r\n        uint256 id;\r\n        string name;\r\n        uint256 speedMultiplier;\r\n        uint256 price;\r\n    }\r\n\r\n    struct ReforestationUpgrade {\r\n        uint256 id;\r\n        string name;\r\n        uint256 reforestationMultiplier;\r\n        uint256 price;\r\n    }\r\n\r\n    // Crez des tableaux pour stocker les outils, les amliorations de vitesse et les amliorations de vitesse de repousse\r\n    Tool[] public tools;\r\n    SpeedUpgrade[] public speedUpgrades;\r\n    ReforestationUpgrade[] public reforestationUpgrades;\r\n\r\n    event Registration(address indexed playerAddress, bytes32 playerName);\r\n    event TreesCut(address player, uint256 parcelIndex, uint256 trees);\r\n    event ParcelCreated(bytes32 indexed parcelId, string indexed parcelName);\r\n\r\n    modifier onlyRegistered {\r\n        require(isRegistered[msg.sender], \"Not registered\");\r\n        _;\r\n    }\r\n\r\n    function register(bytes32 name) external nonReentrant {\r\n        require(nameToAddress[name] == address(0), \"Name already taken\");\r\n        require(!isRegistered[msg.sender], \"Already registered\");\r\n\r\n        uint256 userAngelusBalance = angelusToken.balanceOf(msg.sender);\r\n        uint256 totalAngelusBalance = userAngelusBalance.add(calculateAmountToSend(newUserBonus));\r\n\r\n        Player memory player = Player({\r\n            name: name,\r\n            registrationTime: block.timestamp,\r\n            cutTrees: 0,\r\n            angelusBalance: totalAngelusBalance,\r\n            stakedAngelus: 0,\r\n            unclaimedRewards: 0,\r\n            lastUpdateTimeClaimRewards: block.timestamp,\r\n            toolId: 0, // Hache simple par dfaut\r\n            reforestationUpgradeId: 0 // Pas d'amlioration de vitesse de repousse par dfaut\r\n        });\r\n\r\n        uint256 timeReforestation = 0.02 * 1 hours;\r\n        Parcel memory parcel = Parcel({\r\n            id: keccak256(abi.encodePacked(block.timestamp, msg.sender)),\r\n            name: generateRandomName(parcelIdCounter),\r\n            trees: 900,\r\n            maxTrees: 900,\r\n            lastCutTime: block.timestamp,\r\n            lastGrowthTime: block.timestamp,\r\n            timeUntilCut: block.timestamp,\r\n            timeReforestation: timeReforestation\r\n        });\r\n        parcelIdCounter = parcelIdCounter.add(1);\r\n\r\n        isRegistered[msg.sender] = true;\r\n        players[msg.sender] = player;\r\n        parcels[msg.sender].push(parcel);\r\n        nameToAddress[name] = msg.sender;\r\n        registeredPlayers.push(msg.sender);\r\n\r\n        angelusToken.mint(msg.sender, calculateAmountToSend(newUserBonus));\r\n        emit ParcelCreated(parcel.id, parcel.name); // met l'vnement de cration de la parcelle\r\n        emit Registration(msg.sender, name);\r\n    }\r\n\r\n\r\n    function getParcelIndexById(bytes32 parcelId) internal view returns (uint256) {\r\n        uint256 parcelIndex = 0;\r\n        for (uint256 i = 0; i < parcels[msg.sender].length; i++) {\r\n            if (parcels[msg.sender][i].id == parcelId) {\r\n                parcelIndex = i;\r\n                break;\r\n            }\r\n        }\r\n        return parcelIndex;\r\n    }\r\n\r\n    event Debug(string message, uint256 value);\r\n   function cutTrees(bytes32 parcelId) external onlyRegistered {\r\n        uint256 parcelIndex = getParcelIndexById(parcelId);\r\n        require(parcelIndex < parcels[msg.sender].length, \"Invalid parcel index\");\r\n\r\n        Parcel storage parcel = parcels[msg.sender][parcelIndex];\r\n        require(parcel.trees == 900, \"Trees must be 900 to cut\");\r\n        uint256 timeSinceLastCut = block.timestamp.sub(parcel.lastCutTime);\r\n\r\n        if (timeSinceLastCut >= parcel.timeReforestation) {\r\n            uint256 treesToCut = calculateTrees(parcel.timeUntilCut, parcel.timeReforestation, parcel.maxTrees);\r\n            emit Debug(\"treesToCut\", treesToCut);\r\n            uint256 toolSpeed = tools[players[msg.sender].toolId].cuttingSpeed;\r\n            emit Debug(\"toolSpeed\", toolSpeed);\r\n            uint256 toolSpeedBonus = tools[players[msg.sender].toolId].speedBonus;\r\n            emit Debug(\"toolSpeedBonus\", toolSpeedBonus);\r\n            uint256 totalCuttingSpeed = toolSpeed.mul(100 + toolSpeedBonus).div(100);\r\n            emit Debug(\"totalCuttingSpeed\", totalCuttingSpeed);\r\n            uint256 cuttableTrees = totalCuttingSpeed.mul(timeSinceLastCut).div(1 hours);\r\n            emit Debug(\"cuttableTrees\", cuttableTrees);\r\n            uint256 treesActuallyCut = treesToCut > cuttableTrees ? cuttableTrees : treesToCut;\r\n            emit Debug(\"treesActuallyCut\", cuttableTrees);\r\n\r\n            parcel.trees = parcel.trees.sub(treesActuallyCut);\r\n            emit Debug(\"parcel.trees \", parcel.trees );\r\n            parcel.lastCutTime = block.timestamp;\r\n            emit Debug(\"parcel.lastCutTime\", parcel.lastCutTime);\r\n            players[msg.sender].cutTrees = players[msg.sender].cutTrees.add(treesActuallyCut);\r\n            emit Debug(\"players[msg.sender].cutTrees\", players[msg.sender].cutTrees);\r\n\r\n            emit TreesCut(msg.sender, parcelIndex, treesActuallyCut);\r\n        } else {\r\n            emit Debug(\"timeSinceLastCut\", timeSinceLastCut);\r\n            emit Debug(\"parcel.timeReforestation\", parcel.timeReforestation);\r\n        }\r\n    }\r\n\r\n    \r\n    function getPlayerTools(address player) external view returns (Tool[] memory) {\r\n        return playerTools[player];\r\n    }\r\n\r\n    function getPlayerParcels(address player) external view returns (ParcelInfo[] memory) {\r\n        Parcel[] storage playerParcels = parcels[player];\r\n        uint256 parcelCount = playerParcels.length;\r\n        ParcelInfo[] memory parcelInfos = new ParcelInfo[](parcelCount);\r\n\r\n        for (uint256 i = 0; i < parcelCount; i++) {\r\n            Parcel storage parcel = playerParcels[i];\r\n\r\n            uint256 timeUntilCut;\r\n            uint256 timeSinceLastCut = block.timestamp.sub(parcel.lastCutTime);\r\n            if (timeSinceLastCut >= parcel.timeReforestation) {\r\n                timeUntilCut = 0;\r\n            } else {\r\n                timeUntilCut = parcel.timeReforestation.sub(timeSinceLastCut);\r\n            }\r\n\r\n            uint256 trees = calculateTrees(timeUntilCut, parcel.timeReforestation, parcel.maxTrees);\r\n\r\n            parcelInfos[i] = ParcelInfo({\r\n                id: parcel.id,\r\n                name: parcel.name,\r\n                trees: trees,\r\n                maxTrees: parcel.maxTrees,\r\n                lastCutTime: parcel.lastCutTime,\r\n                lastGrowthTime: parcel.lastGrowthTime,\r\n                timeUntilCut: timeUntilCut,\r\n                timeReforestation: parcel.timeReforestation\r\n            });\r\n        }\r\n\r\n        return parcelInfos;\r\n    }\r\n\r\n\r\n    function calculateTrees(uint256 timeUntilCut, uint256 timeReforestation, uint256 maxTrees) private pure returns (uint256) {\r\n        if (timeUntilCut == 0) {\r\n            return maxTrees; // Ajouter cette ligne pour mettre en pause la repousse des arbres si timeUntilCut est gal  0\r\n        }\r\n        uint256 timePassed = timeReforestation.sub(timeUntilCut);\r\n        uint256 trees = maxTrees.mul(timePassed).div(timeReforestation);\r\n\r\n        return trees;\r\n    }\r\n\r\n    function getPlayerInfo(address playerAddress) external view returns (bytes32, uint256,  uint256, uint256,  uint256, uint256, uint256, uint256, uint256) {\r\n        Player storage player = players[playerAddress];\r\n        return (\r\n            player.name,\r\n            player.registrationTime,\r\n            player.cutTrees,\r\n            player.angelusBalance,\r\n            player.stakedAngelus,\r\n            player.unclaimedRewards,\r\n            player.lastUpdateTimeClaimRewards,\r\n            player.toolId, \r\n            player.reforestationUpgradeId \r\n        );\r\n    }\r\n    \r\n    function generateRandomName(uint256 seed) private view returns (string memory) {\r\n        bytes memory letters = \"bcdfghjklmnpqrstvwxyz\"; // Lettres non-voyelles\r\n        bytes memory vowels = \"aeiou\";\r\n\r\n        bytes memory name = new bytes(16);\r\n        uint256 rand;\r\n\r\n        rand = uint256(keccak256(abi.encodePacked(seed, block.timestamp, \"consonant\"))) % letters.length;\r\n        name[0] = letters[rand];\r\n\r\n        rand = uint256(keccak256(abi.encodePacked(seed, block.timestamp, \"vowel\"))) % vowels.length;\r\n        name[1] = vowels[rand];\r\n\r\n        for (uint256 i = 2; i < 15; i++) {\r\n            if (!isVowel(name[i-1]) && !isVowel(name[i-2])) {\r\n                rand = uint256(keccak256(abi.encodePacked(seed, block.timestamp, i, \"vowel\"))) % vowels.length;\r\n                name[i] = vowels[rand];\r\n            } else {\r\n                rand = uint256(keccak256(abi.encodePacked(seed, block.timestamp, i, \"consonant\"))) % letters.length;\r\n                name[i] = letters[rand];\r\n            }\r\n        }\r\n\r\n        // Supprimer les caractres null-terminator de la fin de la chane de caractres\r\n        uint256 index;\r\n        for (index = 14; index > 0; index--) {\r\n            if (name[index] != 0x00) {\r\n                break;\r\n            }\r\n        }\r\n\r\n        bytes memory trimmedName = new bytes(index + 1);\r\n        for (uint256 i = 0; i <= index; i++) {\r\n            trimmedName[i] = name[i];\r\n        }\r\n\r\n        return string(trimmedName);\r\n    }\r\n\r\n    function isVowel(bytes1 letter) private pure returns (bool) {\r\n        return (letter == 0x61 || letter == 0x65 || letter == 0x69 || letter == 0x6F || letter == 0x75);\r\n    }\r\n\r\n     // Fonction pour rcuprer la liste des outils disponibles\r\n    function getAvailableTools() external view returns (Tool[] memory) {\r\n        return tools;\r\n    }\r\n\r\n    // Fonction pour rcuprer la liste des amliorations d'outil disponibles\r\n    function getAvailableToolUpgrades() external view returns (SpeedUpgrade[] memory) {\r\n        return speedUpgrades;\r\n    }\r\n\r\n    // Fonction pour rcuprer la liste des amliorations de vitesse de repousse disponibles\r\n    function getAvailableReforestationUpgrades() external view returns (ReforestationUpgrade[] memory) {\r\n        return reforestationUpgrades;\r\n    }\r\n        \r\n\r\n       \r\n    \r\n}\r\n\r\n",
  "sourcePath": "F:\\Users\\fabri\\OneDrive\\Desktop\\Projet crypto Angelus\\nodejs\\angelus-token\\contracts\\AngelusGame.sol",
  "compiler": {
    "name": "solc",
    "version": "0.8.19+commit.7dd6d404.Emscripten.clang"
  },
  "schemaVersion": "3.4.13",
  "updatedAt": "2023-04-06T14:51:45.532Z",
  "networkType": "ethereum",
  "devdoc": {
    "kind": "dev",
    "methods": {
      "owner()": {
        "details": "Returns the address of the current owner."
      },
      "renounceOwnership()": {
        "details": "Leaves the contract without owner. It will not be possible to call `onlyOwner` functions anymore. Can only be called by the current owner. NOTE: Renouncing ownership will leave the contract without an owner, thereby removing any functionality that is only available to the owner."
      },
      "transferOwnership(address)": {
        "details": "Transfers ownership of the contract to a new account (`newOwner`). Can only be called by the current owner."
      }
    },
    "version": 1
  },
  "userdoc": {
    "kind": "user",
    "methods": {},
    "version": 1
  }
}