{
  "contractName": "AngelusToken",
  "abi": [
    {
      "inputs": [
        {
          "internalType": "uint256",
          "name": "initialSupply",
          "type": "uint256"
        }
      ],
      "stateMutability": "nonpayable",
      "type": "constructor"
    },
    {
      "anonymous": false,
      "inputs": [
        {
          "indexed": true,
          "internalType": "address",
          "name": "owner",
          "type": "address"
        },
        {
          "indexed": true,
          "internalType": "address",
          "name": "spender",
          "type": "address"
        },
        {
          "indexed": false,
          "internalType": "uint256",
          "name": "value",
          "type": "uint256"
        }
      ],
      "name": "Approval",
      "type": "event"
    },
    {
      "anonymous": false,
      "inputs": [
        {
          "indexed": true,
          "internalType": "address",
          "name": "previousOwner",
          "type": "address"
        },
        {
          "indexed": true,
          "internalType": "address",
          "name": "newOwner",
          "type": "address"
        }
      ],
      "name": "OwnershipTransferred",
      "type": "event"
    },
    {
      "anonymous": false,
      "inputs": [
        {
          "indexed": true,
          "internalType": "address",
          "name": "from",
          "type": "address"
        },
        {
          "indexed": true,
          "internalType": "address",
          "name": "to",
          "type": "address"
        },
        {
          "indexed": false,
          "internalType": "uint256",
          "name": "value",
          "type": "uint256"
        }
      ],
      "name": "Transfer",
      "type": "event"
    },
    {
      "inputs": [
        {
          "internalType": "address",
          "name": "owner",
          "type": "address"
        },
        {
          "internalType": "address",
          "name": "spender",
          "type": "address"
        }
      ],
      "name": "allowance",
      "outputs": [
        {
          "internalType": "uint256",
          "name": "",
          "type": "uint256"
        }
      ],
      "stateMutability": "view",
      "type": "function",
      "constant": true
    },
    {
      "inputs": [
        {
          "internalType": "address",
          "name": "spender",
          "type": "address"
        },
        {
          "internalType": "uint256",
          "name": "amount",
          "type": "uint256"
        }
      ],
      "name": "approve",
      "outputs": [
        {
          "internalType": "bool",
          "name": "",
          "type": "bool"
        }
      ],
      "stateMutability": "nonpayable",
      "type": "function"
    },
    {
      "inputs": [
        {
          "internalType": "address",
          "name": "account",
          "type": "address"
        }
      ],
      "name": "balanceOf",
      "outputs": [
        {
          "internalType": "uint256",
          "name": "",
          "type": "uint256"
        }
      ],
      "stateMutability": "view",
      "type": "function",
      "constant": true
    },
    {
      "inputs": [],
      "name": "decimals",
      "outputs": [
        {
          "internalType": "uint8",
          "name": "",
          "type": "uint8"
        }
      ],
      "stateMutability": "view",
      "type": "function",
      "constant": true
    },
    {
      "inputs": [
        {
          "internalType": "address",
          "name": "spender",
          "type": "address"
        },
        {
          "internalType": "uint256",
          "name": "subtractedValue",
          "type": "uint256"
        }
      ],
      "name": "decreaseAllowance",
      "outputs": [
        {
          "internalType": "bool",
          "name": "",
          "type": "bool"
        }
      ],
      "stateMutability": "nonpayable",
      "type": "function"
    },
    {
      "inputs": [
        {
          "internalType": "address",
          "name": "spender",
          "type": "address"
        },
        {
          "internalType": "uint256",
          "name": "addedValue",
          "type": "uint256"
        }
      ],
      "name": "increaseAllowance",
      "outputs": [
        {
          "internalType": "bool",
          "name": "",
          "type": "bool"
        }
      ],
      "stateMutability": "nonpayable",
      "type": "function"
    },
    {
      "inputs": [],
      "name": "name",
      "outputs": [
        {
          "internalType": "string",
          "name": "",
          "type": "string"
        }
      ],
      "stateMutability": "view",
      "type": "function",
      "constant": true
    },
    {
      "inputs": [],
      "name": "owner",
      "outputs": [
        {
          "internalType": "address",
          "name": "",
          "type": "address"
        }
      ],
      "stateMutability": "view",
      "type": "function",
      "constant": true
    },
    {
      "inputs": [],
      "name": "renounceOwnership",
      "outputs": [],
      "stateMutability": "nonpayable",
      "type": "function"
    },
    {
      "inputs": [],
      "name": "symbol",
      "outputs": [
        {
          "internalType": "string",
          "name": "",
          "type": "string"
        }
      ],
      "stateMutability": "view",
      "type": "function",
      "constant": true
    },
    {
      "inputs": [],
      "name": "totalSupply",
      "outputs": [
        {
          "internalType": "uint256",
          "name": "",
          "type": "uint256"
        }
      ],
      "stateMutability": "view",
      "type": "function",
      "constant": true
    },
    {
      "inputs": [
        {
          "internalType": "address",
          "name": "to",
          "type": "address"
        },
        {
          "internalType": "uint256",
          "name": "amount",
          "type": "uint256"
        }
      ],
      "name": "transfer",
      "outputs": [
        {
          "internalType": "bool",
          "name": "",
          "type": "bool"
        }
      ],
      "stateMutability": "nonpayable",
      "type": "function"
    },
    {
      "inputs": [
        {
          "internalType": "address",
          "name": "from",
          "type": "address"
        },
        {
          "internalType": "address",
          "name": "to",
          "type": "address"
        },
        {
          "internalType": "uint256",
          "name": "amount",
          "type": "uint256"
        }
      ],
      "name": "transferFrom",
      "outputs": [
        {
          "internalType": "bool",
          "name": "",
          "type": "bool"
        }
      ],
      "stateMutability": "nonpayable",
      "type": "function"
    },
    {
      "inputs": [
        {
          "internalType": "address",
          "name": "newOwner",
          "type": "address"
        }
      ],
      "name": "transferOwnership",
      "outputs": [],
      "stateMutability": "nonpayable",
      "type": "function"
    },
    {
      "inputs": [
        {
          "internalType": "address",
          "name": "_gameContract",
          "type": "address"
        }
      ],
      "name": "setGameContract",
      "outputs": [],
      "stateMutability": "nonpayable",
      "type": "function"
    },
    {
      "inputs": [
        {
          "internalType": "address",
          "name": "to",
          "type": "address"
        },
        {
          "internalType": "uint256",
          "name": "amount",
          "type": "uint256"
        }
      ],
      "name": "mint",
      "outputs": [],
      "stateMutability": "nonpayable",
      "type": "function"
    },
    {
      "inputs": [
        {
          "internalType": "address",
          "name": "from",
          "type": "address"
        },
        {
          "internalType": "uint256",
          "name": "amount",
          "type": "uint256"
        }
      ],
      "name": "burn",
      "outputs": [],
      "stateMutability": "nonpayable",
      "type": "function"
    }
  ],
  "bytecode": "0x60806040523480156200001157600080fd5b5060405162001160380380620011608339810160408190526200003491620001e8565b6040518060400160405280600d81526020016c20b733b2b63ab9902a37b5b2b760991b81525060405180604001604052806004815260200163105391d360e21b8152508160039081620000889190620002a6565b506004620000978282620002a6565b505050620000b4620000ae620000c760201b60201c565b620000cb565b620000c033826200011d565b506200039a565b3390565b600580546001600160a01b038381166001600160a01b0319831681179093556040519116919082907f8be0079c531659141344cd1fd0a4f28419497f9722a3daafe3b4186f6b6457e090600090a35050565b6001600160a01b038216620001785760405162461bcd60e51b815260206004820152601f60248201527f45524332303a206d696e7420746f20746865207a65726f206164647265737300604482015260640160405180910390fd5b80600260008282546200018c919062000372565b90915550506001600160a01b038216600081815260208181526040808320805486019055518481527fddf252ad1be2c89b69c2b068fc378daa952ba7f163c4a11628f55a4df523b3ef910160405180910390a35050565b505050565b600060208284031215620001fb57600080fd5b5051919050565b634e487b7160e01b600052604160045260246000fd5b600181811c908216806200022d57607f821691505b6020821081036200024e57634e487b7160e01b600052602260045260246000fd5b50919050565b601f821115620001e357600081815260208120601f850160051c810160208610156200027d5750805b601f850160051c820191505b818110156200029e5782815560010162000289565b505050505050565b81516001600160401b03811115620002c257620002c262000202565b620002da81620002d3845462000218565b8462000254565b602080601f831160018114620003125760008415620002f95750858301515b600019600386901b1c1916600185901b1785556200029e565b600085815260208120601f198616915b82811015620003435788860151825594840194600190910190840162000322565b5085821015620003625787850151600019600388901b60f8161c191681555b5050505050600190811b01905550565b808201808211156200039457634e487b7160e01b600052601160045260246000fd5b92915050565b610db680620003aa6000396000f3fe608060405234801561001057600080fd5b506004361061010b5760003560e01c806370a08231116100a25780639dc29fac116100715780639dc29fac14610214578063a457c2d714610227578063a9059cbb1461023a578063dd62ed3e1461024d578063f2fde38b1461026057600080fd5b806370a08231146101c0578063715018a6146101e95780638da5cb5b146101f157806395d89b411461020c57600080fd5b8063313ce567116100de578063313ce567146101765780633950935114610185578063405ebd4d1461019857806340c10f19146101ad57600080fd5b806306fdde0314610110578063095ea7b31461012e57806318160ddd1461015157806323b872dd14610163575b600080fd5b610118610273565b6040516101259190610bae565b60405180910390f35b61014161013c366004610c18565b610305565b6040519015158152602001610125565b6002545b604051908152602001610125565b610141610171366004610c42565b61031f565b60405160128152602001610125565b610141610193366004610c18565b610343565b6101ab6101a6366004610c7e565b610365565b005b6101ab6101bb366004610c18565b6103f0565b6101556101ce366004610c7e565b6001600160a01b031660009081526020819052604090205490565b6101ab61043d565b6005546040516001600160a01b039091168152602001610125565b610118610451565b6101ab610222366004610c18565b610460565b610141610235366004610c18565b6104a9565b610141610248366004610c18565b610524565b61015561025b366004610ca0565b610532565b6101ab61026e366004610c7e565b61055d565b60606003805461028290610cd3565b80601f01602080910402602001604051908101604052809291908181526020018280546102ae90610cd3565b80156102fb5780601f106102d0576101008083540402835291602001916102fb565b820191906000526020600020905b8154815290600101906020018083116102de57829003601f168201915b5050505050905090565b6000336103138185856105d6565b60019150505b92915050565b60003361032d8582856106fb565b610338858585610775565b506001949350505050565b6000336103138185856103568383610532565b6103609190610d0d565b6105d6565b6006546001600160a01b0316156103ce5760405162461bcd60e51b815260206004820152602260248201527f47616d6520636f6e74726163742068617320616c7265616479206265656e2073604482015261195d60f21b60648201526084015b60405180910390fd5b600680546001600160a01b0319166001600160a01b0392909216919091179055565b6005546001600160a01b031633148061041357506006546001600160a01b031633145b61042f5760405162461bcd60e51b81526004016103c590610d2e565b6104398282610919565b5050565b6104456109d8565b61044f6000610a32565b565b60606004805461028290610cd3565b6005546001600160a01b031633148061048357506006546001600160a01b031633145b61049f5760405162461bcd60e51b81526004016103c590610d2e565b6104398282610a84565b600033816104b78286610532565b9050838110156105175760405162461bcd60e51b815260206004820152602560248201527f45524332303a2064656372656173656420616c6c6f77616e63652062656c6f77604482015264207a65726f60d81b60648201526084016103c5565b61033882868684036105d6565b600033610313818585610775565b6001600160a01b03918216600090815260016020908152604080832093909416825291909152205490565b6105656109d8565b6001600160a01b0381166105ca5760405162461bcd60e51b815260206004820152602660248201527f4f776e61626c653a206e6577206f776e657220697320746865207a65726f206160448201526564647265737360d01b60648201526084016103c5565b6105d381610a32565b50565b6001600160a01b0383166106385760405162461bcd60e51b8152602060048201526024808201527f45524332303a20617070726f76652066726f6d20746865207a65726f206164646044820152637265737360e01b60648201526084016103c5565b6001600160a01b0382166106995760405162461bcd60e51b815260206004820152602260248201527f45524332303a20617070726f766520746f20746865207a65726f206164647265604482015261737360f01b60648201526084016103c5565b6001600160a01b0383811660008181526001602090815260408083209487168084529482529182902085905590518481527f8c5be1e5ebec7d5bd14f71427d1e84f3dd0314c0f7b2291e5b200ac8c7c3b92591015b60405180910390a3505050565b60006107078484610532565b9050600019811461076f57818110156107625760405162461bcd60e51b815260206004820152601d60248201527f45524332303a20696e73756666696369656e7420616c6c6f77616e636500000060448201526064016103c5565b61076f84848484036105d6565b50505050565b6001600160a01b0383166107d95760405162461bcd60e51b815260206004820152602560248201527f45524332303a207472616e736665722066726f6d20746865207a65726f206164604482015264647265737360d81b60648201526084016103c5565b6001600160a01b03821661083b5760405162461bcd60e51b815260206004820152602360248201527f45524332303a207472616e7366657220746f20746865207a65726f206164647260448201526265737360e81b60648201526084016103c5565b6001600160a01b038316600090815260208190526040902054818110156108b35760405162461bcd60e51b815260206004820152602660248201527f45524332303a207472616e7366657220616d6f756e7420657863656564732062604482015265616c616e636560d01b60648201526084016103c5565b6001600160a01b03848116600081815260208181526040808320878703905593871680835291849020805487019055925185815290927fddf252ad1be2c89b69c2b068fc378daa952ba7f163c4a11628f55a4df523b3ef910160405180910390a361076f565b6001600160a01b03821661096f5760405162461bcd60e51b815260206004820152601f60248201527f45524332303a206d696e7420746f20746865207a65726f20616464726573730060448201526064016103c5565b80600260008282546109819190610d0d565b90915550506001600160a01b038216600081815260208181526040808320805486019055518481527fddf252ad1be2c89b69c2b068fc378daa952ba7f163c4a11628f55a4df523b3ef910160405180910390a35050565b6005546001600160a01b0316331461044f5760405162461bcd60e51b815260206004820181905260248201527f4f776e61626c653a2063616c6c6572206973206e6f7420746865206f776e657260448201526064016103c5565b600580546001600160a01b038381166001600160a01b0319831681179093556040519116919082907f8be0079c531659141344cd1fd0a4f28419497f9722a3daafe3b4186f6b6457e090600090a35050565b6001600160a01b038216610ae45760405162461bcd60e51b815260206004820152602160248201527f45524332303a206275726e2066726f6d20746865207a65726f206164647265736044820152607360f81b60648201526084016103c5565b6001600160a01b03821660009081526020819052604090205481811015610b585760405162461bcd60e51b815260206004820152602260248201527f45524332303a206275726e20616d6f756e7420657863656564732062616c616e604482015261636560f01b60648201526084016103c5565b6001600160a01b0383166000818152602081815260408083208686039055600280548790039055518581529192917fddf252ad1be2c89b69c2b068fc378daa952ba7f163c4a11628f55a4df523b3ef91016106ee565b600060208083528351808285015260005b81811015610bdb57858101830151858201604001528201610bbf565b506000604082860101526040601f19601f8301168501019250505092915050565b80356001600160a01b0381168114610c1357600080fd5b919050565b60008060408385031215610c2b57600080fd5b610c3483610bfc565b946020939093013593505050565b600080600060608486031215610c5757600080fd5b610c6084610bfc565b9250610c6e60208501610bfc565b9150604084013590509250925092565b600060208284031215610c9057600080fd5b610c9982610bfc565b9392505050565b60008060408385031215610cb357600080fd5b610cbc83610bfc565b9150610cca60208401610bfc565b90509250929050565b600181811c90821680610ce757607f821691505b602082108103610d0757634e487b7160e01b600052602260045260246000fd5b50919050565b8082018082111561031957634e487b7160e01b600052601160045260246000fd5b60208082526032908201527f4f6e6c79206f776e6572206f722067616d6520636f6e74726163742063616e2060408201527131b0b636103a3434b990333ab731ba34b7b760711b60608201526080019056fea2646970667358221220159af6305062078d9bd28b1492e464c0cfb90daef7d677ac11c8b199cde1d0a664736f6c63430008130033",
  "immutableReferences": {},
  "source": "// SPDX-License-Identifier: MIT\r\npragma solidity ^0.8.19;\r\n\r\n// Import des contrats ERC20 et Ownable d'OpenZeppelin\r\nimport \"@openzeppelin/contracts/token/ERC20/ERC20.sol\";\r\nimport \"@openzeppelin/contracts/access/Ownable.sol\";\r\n\r\n// Cre un contrat AngelusToken qui hrite des contrats ERC20 et Ownable\r\ncontract AngelusToken is ERC20, Ownable {\r\n    // Variable pour stocker l'adresse du contrat de jeu\r\n    address private gameContract;\r\n\r\n    /**\r\n    * Constructeur pour dfinir le nom, le symbole et l'offre initiale du token\r\n    * @dev Constructeur du contrat AngelusToken.\r\n    * @param initialSupply La quantit initiale de tokens  crer.\r\n    */\r\n    constructor(uint256 initialSupply) ERC20(\"Angelus Token\", \"ANGL\") {\r\n        _mint(msg.sender, initialSupply);\r\n    }\r\n\r\n   \r\n\r\n    /**\r\n    * @dev Modificateur pour vrifier que l'appelant est le contrat de jeu\r\n    */\r\n    modifier onlyGameContract() {\r\n        require(msg.sender == gameContract, \"Only the game contract can call this function\");\r\n        _;\r\n    }\r\n\r\n    /**\r\n    * @dev Modificateur pour vrifier que l'appelant est le propritaire du contrat ou le contrat de jeu\r\n    */\r\n    modifier onlyOwnerOrGameContract() {\r\n        require(msg.sender == owner() || msg.sender == gameContract, \"Only owner or game contract can call this function\");\r\n        _;\r\n    }\r\n\r\n    /**\r\n    * @dev Fonction pour dfinir l'adresse du contrat de jeu, accessible uniquement par le propritaire du contrat\r\n    * @param _gameContract L'adresse du contrat de jeu.\r\n    */\r\n   function setGameContract(address _gameContract) external  {\r\n        require(gameContract == address(0), \"Game contract has already been set\");\r\n        gameContract = _gameContract;\r\n    }\r\n\r\n   \r\n\r\n    /**\r\n    * @dev Fonction pour crer des tokens et les attribuer  une adresse spcifie \r\n    * Accessible uniquement par le propritaire du contrat ou le contrat de jeu\r\n    * @param to L'adresse qui recevra les tokens.\r\n    * @param amount Le montant de tokens  crer.\r\n    * Accessible uniquement par le contrat de jeu.\r\n    */\r\n    function mint(address to, uint256 amount) external onlyOwnerOrGameContract {\r\n        _mint(to, amount);\r\n    }\r\n\r\n    /**\r\n    * @dev Fonction pour dtruire (brler) des tokens d'une adresse spcifie\r\n    * Accessible uniquement par le propritaire du contrat ou le contrat de jeu\r\n    * @param from L'adresse qui brule les tokens.\r\n    * @param amount Le montant de tokens  crer.\r\n    * Accessible uniquement par le contrat de jeu.\r\n    */\r\n    function burn(address from, uint256 amount) external onlyOwnerOrGameContract {\r\n        _burn(from, amount);\r\n    }\r\n\r\n    \r\n}\r\n",
  "sourcePath": "F:\\Users\\fabri\\OneDrive\\Desktop\\Projet crypto Angelus\\nodejs\\angelus-token\\contracts\\AngelusToken.sol",
  "compiler": {
    "name": "solc",
    "version": "0.8.19+commit.7dd6d404.Emscripten.clang"
  },
  "schemaVersion": "3.4.13",
  "updatedAt": "2023-04-06T08:53:38.908Z",
  "networkType": "ethereum",
  "devdoc": {
    "events": {
      "Approval(address,address,uint256)": {
        "details": "Emitted when the allowance of a `spender` for an `owner` is set by a call to {approve}. `value` is the new allowance."
      },
      "Transfer(address,address,uint256)": {
        "details": "Emitted when `value` tokens are moved from one account (`from`) to another (`to`). Note that `value` may be zero."
      }
    },
    "kind": "dev",
    "methods": {
      "allowance(address,address)": {
        "details": "See {IERC20-allowance}."
      },
      "approve(address,uint256)": {
        "details": "See {IERC20-approve}. NOTE: If `amount` is the maximum `uint256`, the allowance is not updated on `transferFrom`. This is semantically equivalent to an infinite approval. Requirements: - `spender` cannot be the zero address."
      },
      "balanceOf(address)": {
        "details": "See {IERC20-balanceOf}."
      },
      "burn(address,uint256)": {
        "details": "Fonction pour dtruire (brler) des tokens d'une adresse spcifie Accessible uniquement par le propritaire du contrat ou le contrat de jeu",
        "params": {
          "amount": "Le montant de tokens  crer. Accessible uniquement par le contrat de jeu.",
          "from": "L'adresse qui brule les tokens."
        }
      },
      "constructor": {
        "details": "Constructeur du contrat AngelusToken.",
        "params": {
          "initialSupply": "La quantit initiale de tokens  crer."
        }
      },
      "decimals()": {
        "details": "Returns the number of decimals used to get its user representation. For example, if `decimals` equals `2`, a balance of `505` tokens should be displayed to a user as `5.05` (`505 / 10 ** 2`). Tokens usually opt for a value of 18, imitating the relationship between Ether and Wei. This is the value {ERC20} uses, unless this function is overridden; NOTE: This information is only used for _display_ purposes: it in no way affects any of the arithmetic of the contract, including {IERC20-balanceOf} and {IERC20-transfer}."
      },
      "decreaseAllowance(address,uint256)": {
        "details": "Atomically decreases the allowance granted to `spender` by the caller. This is an alternative to {approve} that can be used as a mitigation for problems described in {IERC20-approve}. Emits an {Approval} event indicating the updated allowance. Requirements: - `spender` cannot be the zero address. - `spender` must have allowance for the caller of at least `subtractedValue`."
      },
      "increaseAllowance(address,uint256)": {
        "details": "Atomically increases the allowance granted to `spender` by the caller. This is an alternative to {approve} that can be used as a mitigation for problems described in {IERC20-approve}. Emits an {Approval} event indicating the updated allowance. Requirements: - `spender` cannot be the zero address."
      },
      "mint(address,uint256)": {
        "details": "Fonction pour crer des tokens et les attribuer  une adresse spcifie  Accessible uniquement par le propritaire du contrat ou le contrat de jeu",
        "params": {
          "amount": "Le montant de tokens  crer. Accessible uniquement par le contrat de jeu.",
          "to": "L'adresse qui recevra les tokens."
        }
      },
      "name()": {
        "details": "Returns the name of the token."
      },
      "owner()": {
        "details": "Returns the address of the current owner."
      },
      "renounceOwnership()": {
        "details": "Leaves the contract without owner. It will not be possible to call `onlyOwner` functions anymore. Can only be called by the current owner. NOTE: Renouncing ownership will leave the contract without an owner, thereby removing any functionality that is only available to the owner."
      },
      "setGameContract(address)": {
        "details": "Fonction pour dfinir l'adresse du contrat de jeu, accessible uniquement par le propritaire du contrat",
        "params": {
          "_gameContract": "L'adresse du contrat de jeu."
        }
      },
      "symbol()": {
        "details": "Returns the symbol of the token, usually a shorter version of the name."
      },
      "totalSupply()": {
        "details": "See {IERC20-totalSupply}."
      },
      "transfer(address,uint256)": {
        "details": "See {IERC20-transfer}. Requirements: - `to` cannot be the zero address. - the caller must have a balance of at least `amount`."
      },
      "transferFrom(address,address,uint256)": {
        "details": "See {IERC20-transferFrom}. Emits an {Approval} event indicating the updated allowance. This is not required by the EIP. See the note at the beginning of {ERC20}. NOTE: Does not update the allowance if the current allowance is the maximum `uint256`. Requirements: - `from` and `to` cannot be the zero address. - `from` must have a balance of at least `amount`. - the caller must have allowance for ``from``'s tokens of at least `amount`."
      },
      "transferOwnership(address)": {
        "details": "Transfers ownership of the contract to a new account (`newOwner`). Can only be called by the current owner."
      }
    },
    "version": 1
  },
  "userdoc": {
    "kind": "user",
    "methods": {
      "constructor": {
        "notice": "Constructeur pour dfinir le nom, le symbole et l'offre initiale du token"
      }
    },
    "version": 1
  }
}